{
  "_format": "hh-sol-artifact-1",
  "contractName": "UniswapV3Adapter",
  "sourceName": "contracts/UniswapV3Adapter.sol",
  "abi": [
    {
      "inputs": [
        {
          "internalType": "address",
          "name": "_swapRouter",
          "type": "address"
        },
        {
          "internalType": "address",
          "name": "_positionManager",
          "type": "address"
        },
        {
          "internalType": "address",
          "name": "_quoter",
          "type": "address"
        }
      ],
      "stateMutability": "nonpayable",
      "type": "constructor"
    },
    {
      "inputs": [],
      "name": "ReentrancyGuardReentrantCall",
      "type": "error"
    },
    {
      "inputs": [
        {
          "internalType": "address",
          "name": "token",
          "type": "address"
        }
      ],
      "name": "SafeERC20FailedOperation",
      "type": "error"
    },
    {
      "anonymous": false,
      "inputs": [
        {
          "indexed": true,
          "internalType": "uint256",
          "name": "tokenId",
          "type": "uint256"
        },
        {
          "indexed": false,
          "internalType": "address",
          "name": "tokenA",
          "type": "address"
        },
        {
          "indexed": false,
          "internalType": "address",
          "name": "tokenB",
          "type": "address"
        },
        {
          "indexed": false,
          "internalType": "uint24",
          "name": "fee",
          "type": "uint24"
        },
        {
          "indexed": false,
          "internalType": "uint256",
          "name": "amountA",
          "type": "uint256"
        },
        {
          "indexed": false,
          "internalType": "uint256",
          "name": "amountB",
          "type": "uint256"
        },
        {
          "indexed": false,
          "internalType": "int24",
          "name": "tickLower",
          "type": "int24"
        },
        {
          "indexed": false,
          "internalType": "int24",
          "name": "tickUpper",
          "type": "int24"
        }
      ],
      "name": "LiquidityAdded",
      "type": "event"
    },
    {
      "anonymous": false,
      "inputs": [
        {
          "indexed": true,
          "internalType": "uint256",
          "name": "tokenId",
          "type": "uint256"
        },
        {
          "indexed": false,
          "internalType": "address",
          "name": "tokenA",
          "type": "address"
        },
        {
          "indexed": false,
          "internalType": "address",
          "name": "tokenB",
          "type": "address"
        },
        {
          "indexed": false,
          "internalType": "uint24",
          "name": "fee",
          "type": "uint24"
        },
        {
          "indexed": false,
          "internalType": "uint256",
          "name": "amount0",
          "type": "uint256"
        },
        {
          "indexed": false,
          "internalType": "uint256",
          "name": "amount1",
          "type": "uint256"
        }
      ],
      "name": "LiquidityRemoved",
      "type": "event"
    },
    {
      "anonymous": false,
      "inputs": [
        {
          "indexed": true,
          "internalType": "address",
          "name": "tokenIn",
          "type": "address"
        },
        {
          "indexed": true,
          "internalType": "address",
          "name": "tokenOut",
          "type": "address"
        },
        {
          "indexed": false,
          "internalType": "uint24",
          "name": "fee",
          "type": "uint24"
        },
        {
          "indexed": false,
          "internalType": "uint256",
          "name": "amountIn",
          "type": "uint256"
        },
        {
          "indexed": false,
          "internalType": "uint256",
          "name": "amountOut",
          "type": "uint256"
        }
      ],
      "name": "TokensSwapped",
      "type": "event"
    },
    {
      "inputs": [
        {
          "internalType": "address",
          "name": "tokenA",
          "type": "address"
        },
        {
          "internalType": "address",
          "name": "tokenB",
          "type": "address"
        },
        {
          "internalType": "uint24",
          "name": "fee",
          "type": "uint24"
        },
        {
          "internalType": "uint256",
          "name": "amountA",
          "type": "uint256"
        },
        {
          "internalType": "uint256",
          "name": "amountB",
          "type": "uint256"
        },
        {
          "internalType": "int24",
          "name": "tickLower",
          "type": "int24"
        },
        {
          "internalType": "int24",
          "name": "tickUpper",
          "type": "int24"
        }
      ],
      "name": "addLiquidity",
      "outputs": [
        {
          "internalType": "uint256",
          "name": "tokenId",
          "type": "uint256"
        }
      ],
      "stateMutability": "nonpayable",
      "type": "function"
    },
    {
      "inputs": [
        {
          "internalType": "address",
          "name": "tokenIn",
          "type": "address"
        },
        {
          "internalType": "address",
          "name": "tokenOut",
          "type": "address"
        },
        {
          "internalType": "uint24",
          "name": "fee",
          "type": "uint24"
        },
        {
          "internalType": "uint256",
          "name": "amountIn",
          "type": "uint256"
        }
      ],
      "name": "getQuote",
      "outputs": [
        {
          "internalType": "uint256",
          "name": "quotedOut",
          "type": "uint256"
        }
      ],
      "stateMutability": "nonpayable",
      "type": "function"
    },
    {
      "inputs": [],
      "name": "positionManager",
      "outputs": [
        {
          "internalType": "contract INonfungiblePositionManager",
          "name": "",
          "type": "address"
        }
      ],
      "stateMutability": "view",
      "type": "function"
    },
    {
      "inputs": [],
      "name": "quoter",
      "outputs": [
        {
          "internalType": "contract IQuoterV2",
          "name": "",
          "type": "address"
        }
      ],
      "stateMutability": "view",
      "type": "function"
    },
    {
      "inputs": [
        {
          "internalType": "address",
          "name": "tokenIn",
          "type": "address"
        },
        {
          "internalType": "address",
          "name": "tokenOut",
          "type": "address"
        },
        {
          "internalType": "uint24",
          "name": "fee",
          "type": "uint24"
        },
        {
          "internalType": "uint256",
          "name": "amountIn",
          "type": "uint256"
        },
        {
          "internalType": "uint256",
          "name": "minOut",
          "type": "uint256"
        }
      ],
      "name": "swapExactInput",
      "outputs": [
        {
          "internalType": "uint256",
          "name": "amountOut",
          "type": "uint256"
        }
      ],
      "stateMutability": "nonpayable",
      "type": "function"
    },
    {
      "inputs": [],
      "name": "swapRouter",
      "outputs": [
        {
          "internalType": "contract ISwapRouter",
          "name": "",
          "type": "address"
        }
      ],
      "stateMutability": "view",
      "type": "function"
    },
    {
      "inputs": [
        {
          "internalType": "uint256",
          "name": "tokenId",
          "type": "uint256"
        },
        {
          "internalType": "uint128",
          "name": "liquidity",
          "type": "uint128"
        },
        {
          "internalType": "uint256",
          "name": "amount0Min",
          "type": "uint256"
        },
        {
          "internalType": "uint256",
          "name": "amount1Min",
          "type": "uint256"
        }
      ],
      "name": "withdrawLiquidity",
      "outputs": [
        {
          "internalType": "uint256",
          "name": "amount0",
          "type": "uint256"
        },
        {
          "internalType": "uint256",
          "name": "amount1",
          "type": "uint256"
        }
      ],
      "stateMutability": "nonpayable",
      "type": "function"
    }
  ],
  "bytecode": "0x60e03461015557601f6115ed38819003918201601f19168301916001600160401b0383118484101761015a578084926060946040528339810103126101555761004781610170565b90610060604061005960208401610170565b9201610170565b6001600055916001600160a01b031680151580610143575b80610131575b15610100576080526001600160a01b0390811660a0521660c0526040516114689081610185823960805181818160c80152610342015260a0518181816105900152818161074801528181610783015281816107bf015281816107fa0152818161098c01528181610d730152611024015260c0518181816102fd0152610e5c0152f35b60405162461bcd60e51b81526020600482015260096024820152682d22a927afa0a2222960b91b6044820152606490fd5b506001600160a01b038316151561007e565b506001600160a01b0382161515610078565b600080fd5b634e487b7160e01b600052604160045260246000fd5b51906001600160a01b03821682036101555756fe6080604052600436101561001257600080fd5b60003560e01c80636b77e75a14610da2578063791b98bc14610d5d5780638f354ec714610946578063afbce84e14610371578063c31c9c071461032c578063c6bbd5a7146102e75763eda28b111461006957600080fd5b346102e25760a03660031901126102e257610082610f00565b61008a610f16565b90610093610f2c565b90606435926100a0610feb565b83156102b3576001600160a01b039081169116808214610281576100c68430338461113f565b7f00000000000000000000000000000000000000000000000000000000000000006001600160a01b0316936100fb858361118a565b6101068186846112de565b604051610100810181811067ffffffffffffffff82111761026b5760409081528382526020820185815262ffffff9687168383018181523360608601908152426080870190815260a087018881526084803560c08a01908152600060e08b01908152985163414bf38960e01b815299516001600160a01b0390811660048c01529751881660248b01529451909c1660448901529151851660648801525199860199909952975160a4850152965160c484015290511660e48201529394849081905a92600061010492602095f193841561025f57600094610227575b5060606020957f6aa501e801191e731832448632a810fbde5f6d1958ec53afd32121ee8c9b5dc69260405191825287820152856040820152a36001600055604051908152f35b90936020823d602011610257575b8161024260209383610f5a565b810103126102545750519260606101e1565b80fd5b3d9150610235565b6040513d6000823e3d90fd5b634e487b7160e01b600052604160045260246000fd5b60405162461bcd60e51b815260206004820152600a60248201526929a0a6a2afaa27a5a2a760b11b6044820152606490fd5b60405162461bcd60e51b81526020600482015260076024820152662d22a927afa4a760c91b6044820152606490fd5b600080fd5b346102e25760003660031901126102e2576040517f00000000000000000000000000000000000000000000000000000000000000006001600160a01b03168152602090f35b346102e25760003660031901126102e2576040517f00000000000000000000000000000000000000000000000000000000000000006001600160a01b03168152602090f35b346102e25760e03660031901126102e25761038a610f00565b610392610f16565b61039a610f2c565b9160a435908160020b82036102e25760c4358060020b81036102e2576103be610feb565b60643515918215809361093b575b15610909578160020b8460020b12156108d8576001600160a01b03818116908616146108a7576001600160a01b03858116908216101561089e57809185935b6001600160a01b0384161561086c57610850575b608435610834575b6001600160a01b038281169084160361082857608435946064355b801515806107ed575b6107b1575b86151580610776575b61073a575b60405195610160870187811067ffffffffffffffff82111761026b5760405260018060a01b038616875260018060a01b03169889602088015262ffffff811660408801528260020b60608801528360020b60808801528160a08801528760c0880152600060e08801526000610100880152336101208801524261014088015261014060405197634418b22b60e11b895260018060a01b0381511660048a015260018060a01b0360208201511660248a015262ffffff60408201511660448a0152606081015160020b60648a0152608081015160020b60848a015260a081015160a48a015260c081015160c48a015260e081015160e48a01526101008101516101048a015260018060a01b03610120820151166101248a0152015161014488015260808761016481600060018060a01b037f0000000000000000000000000000000000000000000000000000000000000000165af198891561025f576000998a8b998c926106df575b506001600160801b0316156106ab5760209b8b9a8a60e09a8762ffffff987f353876ed7f0b6416e92c9943170ce05df95a684538b562ee3c0fc45aeb2cc6879e10610685575b505050808310610668575b5050506040519560018060a01b0316865260018060a01b03168a8601521660408401526064356060840152608435608084015260020b60a083015260020b60c0820152a26001600055604051908152f35b61067d9261067591610fc8565b90339061139b565b8b8080610617565b6106a39261069291610fc8565b9033906001600160a01b031661139b565b8e808061060c565b60405162461bcd60e51b815260206004820152600c60248201526b4e4f5f4c495155494449545960a01b6044820152606490fd5b9b929950505060808a3d608011610732575b816106fe60809383610f5a565b81010312610254575088519661071660208b01610f9e565b60408b01516060909b0151989a98906001600160801b036105c6565b3d91506106f1565b610771876001600160a01b037f000000000000000000000000000000000000000000000000000000000000000081169089166112de565b61045e565b6107ac6001600160a01b037f0000000000000000000000000000000000000000000000000000000000000000811690891661118a565b610459565b6107e8816001600160a01b037f000000000000000000000000000000000000000000000000000000000000000081169088166112de565b610450565b6108236001600160a01b037f0000000000000000000000000000000000000000000000000000000000000000811690881661118a565b61044b565b60643594608435610442565b61084b60843530336001600160a01b038a1661113f565b610427565b61086760643530336001600160a01b03861661113f565b61041f565b60405162461bcd60e51b815260206004820152600a6024820152692d22a927afaa27a5a2a760b11b6044820152606490fd5b8491819361040b565b60405162461bcd60e51b815260206004820152600960248201526812511153951250d05360ba1b6044820152606490fd5b60405162461bcd60e51b81526020600482015260096024820152684241445f5449434b5360b81b6044820152606490fd5b60405162461bcd60e51b815260206004820152600a6024820152694e4f5f414d4f554e545360b01b6044820152606490fd5b5060843515156103cc565b346102e25760803660031901126102e2576004356024356001600160801b0381168091036102e257610976610feb565b6040516331a9108f60e11b8152600481018390527f00000000000000000000000000000000000000000000000000000000000000006001600160a01b03169190602081602481865afa90811561025f57600091610d23575b506001600160a01b0381163314908115610d12575b5015610ce25760405163133f757160e31b8152600481018490529261018084602481865afa91821561025f5760009081958294610c14575b5060405190610a2982610f3e565b83825260208201908152604082016044358152606083019060643582526001600160801b03608085019342855260405195630624e65f60e11b87525160048701525116602485015251604484015251606483015251608482015260408160a4816000895af1801561025f57610bf6575b50604051608081019080821067ffffffffffffffff83111761026b57604091825283815233602082019081526001600160801b0382840181815260608401828152855163fc6f786560e01b81529451600486015292516001600160a01b031660248501525181166044840152905116606482015294859060849082906000905af192831561025f57604095600095600095610b94575b5086516001600160a01b0393841681529216602083015262ffffff168186015260608101849052608081018390527fabec247fd84caa5751724260193c389fb8f7e08ab6e0bab459353e02ea1491af9060a090a2600160005582519182526020820152f35b60a09296507fabec247fd84caa5751724260193c389fb8f7e08ab6e0bab459353e02ea1491af93919550610be162ffffff91893d8b11610bef575b610bd98183610f5a565b810190610fb2565b979097969294509250610b2f565b503d610bcf565b610c0e9060403d604011610bef57610bd98183610f5a565b50610a99565b9195509250610180813d8211610cda575b81610c336101809383610f5a565b81010312610cd65780516bffffffffffffffffffffffff811603610cd657610c5d60208201610f7c565b50610c6a60408201610f7c565b610c7660608301610f7c565b9160808101519662ffffff88168803610254575061016081610c9d60a0610ccc9401610f90565b50610caa60c08201610f90565b50610cb760e08201610f9e565b50610cc56101408201610f9e565b5001610f9e565b5090949286610a1b565b8480fd5b3d9150610c25565b60405162461bcd60e51b815260206004820152600860248201526709c9ea8be82aaa8960c31b6044820152606490fd5b610d1d91508461100d565b846109e3565b90506020813d602011610d55575b81610d3e60209383610f5a565b810103126102e257610d4f90610f7c565b846109ce565b3d9150610d31565b346102e25760003660031901126102e2576040517f00000000000000000000000000000000000000000000000000000000000000006001600160a01b03168152602090f35b346102e25760803660031901126102e257610dbb610f00565b610dc3610f16565b62ffffff610dcf610f2c565b610dd7610feb565b60405193610de485610f3e565b6001600160a01b039081168552928316602085019081526064803560408088019182529385166060880190815260006080808a018281529651636352813560e11b81529951891660048b01529451881660248a015291516044890152519094169086015290518316608485015291839160a4918391907f0000000000000000000000000000000000000000000000000000000000000000165af190811561025f57600091610e9d575b6020826001600055604051908152f35b6080813d608011610ef8575b81610eb660809383610f5a565b81010312610ef057805160208201519091906001600160a01b03811603610ef4576040015163ffffffff811603610ef05790506020610e8d565b5080fd5b8280fd5b3d9150610ea9565b600435906001600160a01b03821682036102e257565b602435906001600160a01b03821682036102e257565b6044359062ffffff821682036102e257565b60a0810190811067ffffffffffffffff82111761026b57604052565b90601f8019910116810190811067ffffffffffffffff82111761026b57604052565b51906001600160a01b03821682036102e257565b51908160020b82036102e257565b51906001600160801b03821682036102e257565b91908260409103126102e2576020825192015190565b91908203918211610fd557565b634e487b7160e01b600052601160045260246000fd5b600260005414610ffc576002600055565b633ee5aeb560e01b60005260046000fd5b60405163020604bf60e21b815260048101919091527f00000000000000000000000000000000000000000000000000000000000000006001600160a01b031690602081602481855afa90811561025f57600091611105575b506001600160a01b031630146110fe5760405163e985e9c560e01b81526001600160a01b03929092166004830152306024830152602090829060449082905afa90811561025f576000916110c3575b506110be57600090565b600190565b6020813d6020116110f6575b816110dc60209383610f5a565b81010312610ef057519081151582036102545750386110b4565b3d91506110cf565b5050600190565b90506020813d602011611137575b8161112060209383610f5a565b810103126102e25761113190610f7c565b38611065565b3d9150611113565b6040516323b872dd60e01b60208201526001600160a01b03928316602482015292909116604483015260648083019390935291815261118891611183608483610f5a565b6113d7565b565b604051636eb1769f60e11b81523060048201526001600160a01b03838116602483015290919081166000602084604481855afa9384156112d1578194611299575b505060405163095ea7b360e01b60208281019182526001600160a01b0387166024840152604483019590955290939060009061121486606481015b03601f198101885287610f5a565b85519082865af1903d600051908361127a575b5050501561123457505050565b60405163095ea7b360e01b60208201526001600160a01b039093166024840152600060448085019190915283526111889261118390611274606482610f5a565b826113d7565b9192509061128f57503b15155b388080611227565b6001915014611287565b9093506020813d6020116112c9575b816112b560209383610f5a565b810103126112c5575192386111cb565b8380fd5b3d91506112a8565b50604051903d90823e3d90fd5b604051636eb1769f60e11b81523060048201526001600160a01b03838116602483015292939092821690602084604481855afa93841561025f57600094611367575b508301809311610fd55760405163095ea7b360e01b60208281019182526001600160a01b038716602484015260448301959095529093906000906112148660648101611206565b90936020823d602011611393575b8161138260209383610f5a565b810103126102545750519238611320565b3d9150611375565b60405163a9059cbb60e01b60208201526001600160a01b0392909216602483015260448083019390935291815261118891611183606483610f5a565b906000602091828151910182855af11561025f576000513d61142957506001600160a01b0381163b155b6114085750565b635274afe760e01b60009081526001600160a01b0391909116600452602490fd5b6001141561140156fea26469706673582212204616fb7e223c076bbaa463d1ff00516c7a8d7fc19bbecf6bfb940b2b536072ef64736f6c634300081c0033",
  "linkReferences": {},
  "deployedLinkReferences": {}
}